:1000000009C016C027C028C113C012C011C010C03B
:100010000FC00EC011241FBECFE9CDBF10E0A0E677
:10002000B0E001C01D92A736B107E1F73BD1E6C1B0
:10003000E7CF1092650010926400222483B783609A
:1000400083BF12BE89B7826089BF8BB780628BBFC6
:10005000AC9A08951F920F920FB60F9211242F930E
:100060003F934F935F938F939F93AF93BF9322B729
:10007000409163008091600090916100820F911D1A
:10008000342F20E0820F931F9093610080936000D3
:1000900012BE1092630020916500223071F123306E
:1000A00034F4222359F0213009F0C9C00BC02330A9
:1000B00009F44AC0243009F0C2C079C0B499BDC067
:1000C00081E072C0AA2797FDA095BA2F9C01AD01CF
:1000D00028513040404050402F36310541055105F0
:1000E00008F0ABC04896A11DB11D80379105A10550
:1000F000B10508F491C082E057C0AA2797FDA095EA
:10010000BA2F9C01AD0128513040404050402F365D
:1001100031054105510508F090C04896A11DB11D5B
:1001200080379105A105B10508F476C095E0292E28
:1001300010926200109266001092610010926000AE
:1001400083E0809365007BC0AA2797FDA095BA2F16
:100150009C01AD0128513040404050402F363105C0
:100160004105510508F069C04896A11DB11D8037B1
:100170009105A105B10508F44FC0222D2150222E72
:10018000B4990DC03091620081E090E0022E02C06F
:10019000880F991F0A94E2F7382B309362002223CC
:1001A000B1F586E0282E84E08093650030C0AA2750
:1001B00097FDA095BA2F9C01AD01285130404040D9
:1001C00050402F36310541055105B8F54896A11D1F
:1001D000B11D80379105A105B105F0F0222D215008
:1001E000222EB4990DC03091660081E090E0022E7D
:1001F00002C0880F991F0A94E2F7382B30936600EB
:10020000222329F481E0809364001092650010920B
:1002100061001092600013C027333105410551057C
:1002200060F488339105A105B10538F087E390E0CB
:10023000909361008093600002C010926500BF91AE
:10024000AF919F918F915F914F913F912F910F901F
:100250000FBE0F901F9018951F920F920FB60F921E
:1002600011248F93809163008F5F8093630080914E
:100270006300833310F0109265008F910F900FBED2
:100280000F901F9018958FEF92E5A7E08150904056
:10029000A040E1F700C000000895F89490E0A0D0DD
:1002A00078940895DF92EF92FF920F931F93C1DE2F
:1002B00088E090E08DD0182F8AE090E089D0082F58
:1002C0008EE087BB81E088BB7894F12E8FE0D82E3A
:1002D000EE24E39435C0123069F0133018F4113075
:1002E00001F505C0133041F01430D9F40EC083E09D
:1002F00088BB19C0D8BA17C0E8BA88E063E0CDDF80
:10030000C2DFC1DF109264000DC081E088BB88E0CD
:1003100061E0C3DFC39AB7DFB6DFC398B4DFB3DFF2
:10032000F9CF04E014E0F11659F0143049F088E0F8
:10033000612FB3DFA8DFF12E03C012E001C013E08C
:1003400080916400882339F21092640080916200E9
:100350008B3089F4009166000E7FC39A94DF8AE0A7
:10036000602F9BDFC3988FDFC39A8DDFC3981092F5
:10037000640011E0E5CF113019F0123009F716C012
:10038000B09B0FC0809162008730D1F6409166002B
:1003900050E0202F30E02F5F3F4F4217530761F4AA
:1003A000CCCF80916600813069F4C7CFB09B0AC082
:1003B00080916200873021F680916600801709F0F5
:1003C000BFCFBDCF80916600823009F0B9CFB7CFE3
:1003D000E199FECF1FBA8EBBE09A99278DB308959D
:1003E000262FE199FECF1CBA1FBA8EBB2DBB0FB6CC
:1003F000F894E29AE19A0FBE01960895F894FFCF1F
:00000001FF
