:100000000C9434000C9493000C9446000C9446001D
:100010000C9478000C9487000C9446000C944600D5
:100020000C9446000C9446000C9446000C94460038
:100030000C9446000C9446000C9446000C94460028
:100040000C9446000C9446000C9446000C94460018
:100050000C9446000C9446000C9446000C94460008
:100060000C9446000C94460011241FBECFEFD4E040
:10007000DEBFCDBF11E0A0E0B1E001C01D92A23013
:10008000B107E1F70E949B020C94D6030C94000088
:1000900084B18F6084B90895982F81508430F0F432
:1000A000492F50E0662371F425B14150504081E062
:1000B00090E002C0880F991F4A95E2F7809582234D
:1000C00085B9089525B14150504081E090E002C0CB
:1000D000880F991F4A95E2F7282B25B908958823A0
:1000E00019F485B1807F02C085B18F6085B908950C
:1000F0001F920F920FB60F9211248F9381E080937D
:1001000000018F910F900FBE0F901F9018951F92B6
:100110000F920FB60F921124109200010F900FBE94
:100120000F901F9018951F920F920FB60F921124E7
:100130008F9382E0809300018F910F900FBE0F90FC
:100140001F901895809164008F6E8093640088B131
:10015000817C88B9809169008C7F80936900E89ADE
:100160008091680086608093680080916D00826055
:1001700080936D0080916C00816080936C00789416
:1001800083B7856083BF889583B78E7F83BFF894DC
:10019000809164008E7F8093640080917C008E66E5
:1001A00080937C0080917A00806880937A0080E15F
:1001B00097E20197F1F780917A00806480937A004A
:1001C00080917A0084FFFCCF80917A0080618093D7
:1001D0007A0080917900843708F44AC081E00E9457
:1001E0006F0088EB9BE028EC30E0F9013197F1F7E4
:1001F0000197D9F780E00E946F0088EB9BE028EC24
:1002000030E0F9013197F1F70197D9F781E00E94C9
:100210006F0088EB9BE028EC30E0F9013197F1F7B3
:100220000197D9F780E00E946F0088EB9BE028ECF3
:1002300030E0F9013197F1F70197D9F781E00E9499
:100240006F0088EB9BE028EC30E0F9013197F1F783
:100250000197D9F780E00E946F0088EB9BE028ECC3
:1002600030E0F9013197F1F70197D9F70E94A20028
:10027000809164008F798093640088B18E6788B91B
:100280000895FF920F931F93CF93DF93082F0E943F
:10029000D103182F813009F035C082E061E00E945F
:1002A0004C0088EB9BE028EC30E0F9013197F1F746
:1002B0000197D9F782E060E00E944C0088EB9BE058
:1002C00028EC30E0F9013197F1F70197D9F782E096
:1002D00061E00E944C0088EB9BE028EC30E0F901E3
:1002E0003197F1F70197D9F782E060E00E944C0066
:1002F00088EB9BE028EC30E0F9013197F1F70197AA
:10030000D9F737C082E061E00E944C00F12EFF0C6B
:10031000C0E4DCE916C084E061E00E944C001123D7
:1003200019F48DE062E002C087E06F2D41E00E9489
:10033000670384E060E00E944C00CE010197F1F772
:100340000150002341F780ED97E028EC30E0F901FF
:100350003197F1F70197D9F782E060E00E944C00F5
:1003600088EE93E028EC30E0F9013197F1F701973E
:10037000D9F7DF91CF911F910F91FF900895FF92D0
:100380000F931F93CF93DF93F82E0E94D103082F72
:10039000813009F035C083E061E00E944C0088EBB9
:1003A0009BE028EC30E0F9013197F1F70197D9F79C
:1003B00083E060E00E944C0088EB9BE028EC30E09A
:1003C000F9013197F1F70197D9F783E061E00E94D5
:1003D0004C0088EB9BE028EC30E0F9013197F1F715
:1003E0000197D9F783E060E00E944C0088EB9BE026
:1003F00028EC30E0F9013197F1F70197D9F738C0CF
:1004000083E061E00E944C00102F110F1160C0E4E6
:10041000DCE916C084E061E00E944C00002319F47E
:100420008DE061E002C087E0612F41E00E94670338
:1004300084E060E00E944C00CE010197F1F7FA944D
:10044000FF2041F780ED97E028EC30E0F90131978B
:10045000F1F70197D9F783E060E00E944C0088EE45
:1004600093E028EC30E0F9013197F1F70197D9F7E3
:10047000DF91CF911F910F91FF9008951F930E94DC
:10048000D103182F823008F181E061E00E944C0016
:10049000110F8BE0612F42E00E94670388EB9BE025
:1004A00028EC30E0F9013197F1F70197D9F781E0B5
:1004B00060E00E944C0088EB9BE028EC30E0F90102
:1004C0003197F1F70197D9F734C081E061E00E94DC
:1004D0004C0088EB9BE028EC30E0F9013197F1F714
:1004E0000197D9F781E060E00E944C0088EB9BE027
:1004F00028EC30E0F9013197F1F70197D9F781E065
:1005000061E00E944C0088EB9BE028EC30E0F901B0
:100510003197F1F70197D9F781E060E00E944C0034
:1005200088EB9BE028EC30E0F9013197F1F7019777
:10053000D9F71F9108950F931F93CF93DF9380E016
:1005400090E020E80FB6F89420936100809361005A
:100550000FBE0E9408030E94C2030E944800C0E22E
:10056000DEE408EC10E0809100018230C1F40DC09F
:10057000CE010197F1F74A9903C085E00E9441013D
:100580004A9BFECFCE010197F1F74A9BF1CF88EE4F
:1005900093E0F8013197F1F70197D9F736C08091D0
:1005A00000018130C1F40DC0CE010197F1F73099FF
:1005B00003C085E00E94BF01309BFECFCE010197B2
:1005C000F1F7309BF1CF88EE93E0F8013197F1F726
:1005D0000197D9F71AC080910001882369F015C0EE
:1005E000CE010197F1F7499902C00E943E02499B52
:1005F000FECFCE010197F1F7499BF2CF80ED97E056
:10060000F8013197F1F70197D9F70E94A200ABCF1B
:10061000539AE0EBF0E0808182608083E1EBF0E0D0
:1006200080818160808399E69093B300559A84B568
:10063000826084BD85B5816085BD97BD0895813098
:1006400021F484B5806184BD0895823029F48091BD
:10065000B00080618093B0000895813029F484B5A2
:100660008F7E84BD5D980895823031F48091B00012
:100670008F7E8093B0005B980895FF920F931F9335
:10068000F82E0E942D0302EF16E0C8010197F1F742
:100690008F2D0E941F03C8010197F1F71F910F9141
:1006A000FF900895FF920F931F93F82E0E941F034F
:1006B00002EF16E0C8010197F1F78F2D0E942D037C
:1006C000C8010197F1F71F910F91FF900895EF92E4
:1006D000FF920F931F93CF93DF93F82E062F142FC3
:1006E000842F0E943D03812F0E943D0380910101D0
:1006F000882331F010920101812F0E943D0306C032
:1007000081E080930101812F0E945203C4E0D0E078
:10071000EF2CFF24C7010C2E02C0959587950A94F3
:10072000E2F780FF04C0812F0E943D0303C0812FA8
:100730000E94520321978FEFCF3FD80759F7C5E0AA
:10074000D0E0E02EFF24C7010C2E02C095958795BE
:100750000A94E2F780FF04C0812F0E943D0303C08A
:10076000812F0E94520321978FEFCF3FD80759F76F
:10077000812F0E942D03DF91CF911F910F91FF9048
:10078000EF9008958AB1897F8AB938988BB18660D5
:100790008BB9409A87B1817C87B988B18E6388B95B
:1007A000089586B1869580958F710895F894FFCF4E
:00000001FF
