:100000000C9434000C9493000C9446000C9446001D
:100010000C9478000C9487000C9446000C944600D5
:100020000C9446000C9446000C9446000C94460038
:100030000C9446000C9446000C9446000C94460028
:100040000C9446000C9446000C9446000C94460018
:100050000C9446000C9446000C9446000C94460008
:100060000C9446000C94460011241FBECFEFD4E040
:10007000DEBFCDBF11E0A0E0B1E001C01D92A23013
:10008000B107E1F70E9483020C94C0030C940000B6
:1000900084B18F6084B90895982F81508430F0F432
:1000A000492F50E0662371F425B14150504081E062
:1000B00090E002C0880F991F4A95E2F7809582234D
:1000C00085B9089525B14150504081E090E002C0CB
:1000D000880F991F4A95E2F7282B25B908958823A0
:1000E00019F485B1807F02C085B18F6085B908950C
:1000F0001F920F920FB60F9211248F9381E080937D
:1001000000018F910F900FBE0F901F9018951F92B6
:100110000F920FB60F921124109200010F900FBE94
:100120000F901F9018951F920F920FB60F921124E7
:100130008F9382E0809300018F910F900FBE0F90FC
:100140001F901895809164008F6E8093640088B131
:10015000817C88B9809169008C7F80936900E89ADE
:100160008091680086608093680080916D00826055
:1001700080936D0080916C00816080936C00789416
:1001800083B7856083BF889583B78E7F83BFF894DC
:10019000809164008E7F8093640080917C008E66E5
:1001A00080937C0080917A00806880937A0080E15F
:1001B00097E20197F1F780917A00806480937A004A
:1001C00080917A0084FFFCCF80917A0080618093D7
:1001D0007A0080917900843708F44AC081E00E9457
:1001E0006F0088EB9BE028EC30E0F9013197F1F7E4
:1001F0000197D9F780E00E946F0088EB9BE028EC24
:1002000030E0F9013197F1F70197D9F781E00E94C9
:100210006F0088EB9BE028EC30E0F9013197F1F7B3
:100220000197D9F780E00E946F0088EB9BE028ECF3
:1002300030E0F9013197F1F70197D9F781E00E9499
:100240006F0088EB9BE028EC30E0F9013197F1F783
:100250000197D9F780E00E946F0088EB9BE028ECC3
:1002600030E0F9013197F1F70197D9F70E94A20028
:10027000809164008F798093640088B18E6788B91B
:100280000895FF920F931F93CF93DF93182F0E942F
:10029000BB03082F813009F035C082E061E00E9485
:1002A0004C0088EB9BE028EC30E0F9013197F1F746
:1002B0000197D9F782E060E00E944C0088EB9BE058
:1002C00028EC30E0F9013197F1F70197D9F782E096
:1002D00061E00E944C0088EB9BE028EC30E0F901E3
:1002E0003197F1F70197D9F782E060E00E944C0066
:1002F00088EB9BE028EC30E0F9013197F1F70197AA
:10030000D9F72AC082E061E00E944C001F5FF02E06
:10031000FF0CC8ECD0E01AC084E061E00E944C0001
:10032000002319F48DE062E002C087E06F2D41E008
:100330000E94510384E060E00E944C0084E794E056
:10034000FE013197F1F70197D9F71150112321F7E9
:1003500082E060E00E944C00DF91CF911F910F91ED
:10036000FF900895FF920F931F93CF93DF93182F61
:100370000E94BB03F82E81E0F81609F035C083E037
:1003800061E00E944C0088EB9BE028EC30E0F90132
:100390003197F1F70197D9F783E060E00E944C00B4
:1003A00088EB9BE028EC30E0F9013197F1F70197F9
:1003B000D9F783E061E00E944C0088EB9BE028ECD9
:1003C00030E0F9013197F1F70197D9F783E060E068
:1003D0000E944C0088EB9BE028EC30E0F90131975B
:1003E000F1F70197D9F72CC083E061E00E944C003F
:1003F000012F0F5F1F2D110F1160C8ECD0E01AC044
:1004000084E061E00E944C00FF2019F48DE061E07F
:1004100002C087E0612F41E00E94510384E060E068
:100420000E944C0084E794E0FE013197F1F70197B8
:10043000D9F70150002321F783E060E00E944C00CF
:10044000DF91CF911F910F91FF9008951F930E940C
:10045000BB03182F823008F181E061E00E944C005C
:10046000110F8BE0612F42E00E94510388EB9BE06B
:1004700028EC30E0F9013197F1F70197D9F781E0E5
:1004800060E00E944C0088EB9BE028EC30E0F90132
:100490003197F1F70197D9F734C081E061E00E940C
:1004A0004C0088EB9BE028EC30E0F9013197F1F744
:1004B0000197D9F781E060E00E944C0088EB9BE057
:1004C00028EC30E0F9013197F1F70197D9F781E095
:1004D00061E00E944C0088EB9BE028EC30E0F901E1
:1004E0003197F1F70197D9F781E060E00E944C0065
:1004F00088EB9BE028EC30E0F9013197F1F70197A8
:10050000D9F71F9108950F931F93CF93DF9380E046
:1005100090E020E80FB6F89420936100809361008A
:100520000FBE0E94F2020E94AC030E944800C0E28B
:10053000DEE408EC10E0809100018230C9F40EC0C6
:10054000CE010197F1F703C081E00E9441014A9B6F
:10055000FBCF4A9BFECFCE010197F1F74A9BF0CF2C
:1005600088EE93E0F8013197F1F70197D9F737C09A
:10057000809100018130C9F40EC0CE010197F1F7DE
:1005800003C081E00E94B201309BFBCF309BFECFC5
:10059000CE010197F1F7309BF0CF88EE93E0F801A0
:1005A0003197F1F70197D9F71AC08091000188239C
:1005B00069F015C0CE010197F1F7499902C00E9478
:1005C0002602499BFECFCE010197F1F7499BF2CF5E
:1005D00080ED97E0F8013197F1F70197D9F70E9484
:1005E000A200A9CF539AE0EBF0E080818260808383
:1005F000E1EBF0E080818160808399E69093B30025
:10060000559A84B5826084BD85B5816085BD97BDEE
:100610000895813021F484B5806184BD08958230CD
:1006200029F48091B00080618093B00008958130FA
:1006300029F484B58F7E84BD5D980895823031F4AD
:100640008091B0008F7E8093B0005B980895FF92F8
:100650000F931F93F82E0E94170302EF16E0C801B4
:100660000197F1F78F2D0E940903C8010197F1F757
:100670001F910F91FF900895FF920F931F93F82EF3
:100680000E94090302EF16E0C8010197F1F78F2DD0
:100690000E941703C8010197F1F71F910F91FF9076
:1006A0000895EF92FF920F931F93CF93DF93F82E4D
:1006B000062F142F842F0E942703812F0E942703C7
:1006C00080910101882331F010920101812F0E9455
:1006D000270306C081E080930101812F0E943C0323
:1006E000C4E0D0E0EF2CFF24C7010C2E02C095958A
:1006F00087950A94E2F780FF04C0812F0E942703A8
:1007000003C0812F0E943C0321978FEFCF3FD80772
:1007100059F7C5E0D0E0E02EFF24C7010C2E02C03F
:10072000959587950A94E2F780FF04C0812F0E9477
:10073000270303C0812F0E943C0321978FEFCF3FF7
:10074000D80759F7812F0E941703DF91CF911F918E
:100750000F91FF90EF9008958AB1897F8AB93898F8
:100760008BB186608BB9409A87B1817C87B988B19B
:100770008E6388B9089586B1869580958F710895A6
:04078000F894FFCF1B
:00000001FF
