:100000000C9434000C9424020C9446000C9446008A
:100010000C9409020C9418020C9446000C944600AF
:100020000C9446000C9446000C9446000C94460038
:100030000C9446000C9446000C9446000C94460028
:100040000C9446000C9446000C9446000C94460018
:100050000C9446000C9446000C9446000C94460008
:100060000C9446000C94460011241FBECFEFD4E040
:10007000DEBFCDBF21E0A0E0B1E001C01D92A23003
:10008000B207E1F70E9428030C9499030C94000036
:10009000CF930E946E02C82F61E081E0C23048F029
:1000A0000E9437026C2F660F42E08BE00E94D20262
:1000B0001CC00E9437022FEF82E597E0215080405C
:1000C0009040E1F700C0000060E081E00E9437024C
:1000D0002FEF82E597E0215080409040E1F700C08B
:1000E000000061E081E00E9437022FEF82E597E097
:1000F000215080409040E1F700C0000060E081E0C6
:100100000E9437022FEF82E597E021508040904017
:10011000E1F700C00000CF9108951F93CF93DF93C4
:10012000C82F0E946E02D82F61E083E0D130B1F574
:100130000E9437022FEF82E597E0215080409040E7
:10014000E1F700C0000060E083E00E9437022FEF7B
:1001500082E597E0215080409040E1F700C0000028
:1001600061E083E00E9437022FEF82E597E02150A3
:1001700080409040E1F700C0000060E083E00E9412
:1001800037022FEF82E597E0215080409040E1F761
:1001900000C00000DF91CF911F9108950E943702A7
:1001A000CF5F1D2F110F1160CC23D1F061E084E0EF
:1001B0000E94370241E0D11103C061E08DE002C02E
:1001C000612F87E00E94D20260E084E00E94370243
:1001D0008FE59AEE0197F1F700C00000C150E4CF1F
:1001E00060E083E0DF91CF911F910C9437021F9361
:1001F000CF93DF93C82F0E946E02D82F61E082E078
:10020000D130B1F50E9437022FEF82E597E02150FF
:1002100080409040E1F700C0000060E082E00E9472
:1002200037022FEF82E597E0215080409040E1F7C0
:1002300000C0000061E082E00E9437022FEF82E5FB
:1002400097E0215080409040E1F700C0000060E05E
:1002500082E00E9437022FEF82E597E02150804034
:100260009040E1F700C00000DF91CF911F91089509
:100270000E943702CF5F1D2F110FCC23E9F061E000
:1002800084E00E94370241E0D11103C062E08DE0BA
:1002900002C0612F87E00E94D20260E084E00E94E9
:1002A00037022FE788EC92E0215080409040E1F740
:1002B00000C00000C150E1CF60E082E0DF91CF914B
:1002C0001F910C943702809164008F6E80936400BC
:1002D00088B1817C88B9809169008C7F80936900A6
:1002E000E89A8091680086608093680080916D0034
:1002F000826080936D0080916C00816080936C00BF
:10030000789483B7856083BF889583B78E7F83BFDA
:10031000F894809164008E7F8093640080917C00CB
:100320008E6680937C0080917A00806880937A004A
:100330008FE097E20197F1F700C0000080917A000A
:10034000806480937A0080917A0084FFFCCF809152
:100350007A00806180937A0080917A008F77809311
:100360007A0080917900843708F44AC081E00E94C5
:1003700056029FEF22E587E0915020408040E1F750
:1003800000C0000080E00E9456029FEF22E587E057
:10039000915020408040E1F700C0000081E00E94C1
:1003A00056029FEF22E587E0915020408040E1F720
:1003B00000C0000080E00E9456029FEF22E587E027
:1003C000915020408040E1F700C0000081E00E9491
:1003D00056029FEF22E587E0915020408040E1F7F0
:1003E00000C0000080E00E9456029FEF22E587E0F7
:1003F000915020408040E1F700C000000E9463015E
:10040000809164008F798093640088B18E6788B989
:1004100008951F920F920FB60F9211248F9381E0CF
:10042000809300018F910F900FBE0F901F90189531
:100430001F920F920FB60F921124109200010F908D
:100440000FBE0F901F9018951F920F920FB60F922C
:1004500011248F9382E0809300018F910F900FBE43
:100460000F901F90189584B18F6084B908959FEF05
:10047000980F9430D0F490E045B1019721E030E03E
:1004800061110AC0B90102C0660F771F8A95E2F7B1
:10049000CB018095842308C0B90102C0660F771F85
:1004A0008A95E2F7CB01842B85B90895811103C0A9
:1004B00085B1807F02C085B18F6085B908958AB10A
:1004C000897F8AB938988BB186608BB9409A87B199
:1004D000817C87B988B18E6388B9089586B1869585
:1004E00080958F710895539AE0EBF0E080818260EF
:1004F0008083E1EBF0E080818160808399E69093D6
:10050000B300559A84B5826084BD85B5816085BD90
:1005100097BD0895813021F484B5806184BD08952C
:10052000823029F48091B00080618093B0000895FA
:10053000813029F484B58F7E84BD5D980895823022
:1005400031F48091B0008F7E8093B0005B98089565
:10055000CF93C82F0E94980281EF96E00197F1F7A0
:1005600000C000008C2F0E948A0281EF96E0019764
:10057000F1F700C00000CF910895CF93C82F0E94DB
:100580008A0281EF96E00197F1F700C000008C2FFE
:100590000E94980281EF96E00197F1F700C00000F9
:1005A000CF910895CF92DF92EF92FF920F931F9316
:1005B000CF93C82EE62EC42F842F0E94A8028C2F22
:1005C0000E94A80280910101882331F0109201015C
:1005D0008C2F0E94A80206C081E0809301018C2F1D
:1005E0000E94BD0204E010E0D12CC601002E02C022
:1005F000959587950A94E2F780FF04C08C2F0E949E
:10060000A80203C08C2F0E94BD020150110968F797
:1006100005E010E0F12CC701002E02C095958795EA
:100620000A94E2F780FF04C08C2F0E94A80203C046
:100630008C2F0E94BD020150110968F78C2FCF91B9
:100640001F910F91FF90EF90DF90CF900C94980244
:1006500020E030E080E80FB6F894809361002093AA
:1006600061000FBE0E9473020E945F020E9433026B
:10067000809100018230B9F44A991BC08FE19EE459
:100680000197F1F700C000004A9904C081E00E9480
:10069000F700FACF4A9BFECF8FE19EE40197F1F776
:1006A00000C00000E9CF809100018130F1F4309B5F
:1006B00008C09FEF20E782E0915020408040E1F7A2
:1006C00033C08FE19EE40197F1F700C0000030993C
:1006D00003C083E00E948D00309BFECF8FE19EE43B
:1006E0000197F1F700C00000E2CF80910001811175
:1006F0001DC0499912C08FE19EE40197F1F700C037
:100700000000499B0E944800499BFECF8FE19EE478
:100710000197F1F700C00000ECCF9FEF21EE84E0DD
:10072000915020408040E1F700C000000E9463012A
:060730009FCFF894FFCFFB
:00000001FF
